{
  "transactions": [
    {
      "hash": "0x03446d135d79ba7e32ff86ec4df972fbc253fe742d2060a8a6d76224b7cc8f56",
      "transactionType": "CREATE",
      "contractName": "ProjectContract",
      "contractAddress": "0xd7366C3A264B47e89a46258f5D3909dCbeBBd3c1",
      "function": null,
      "arguments": null,
      "transaction": {
        "type": "0x02",
        "from": "0xe4e78523fda823973d0484bd2dc7bc34343d68fd",
        "gas": "0x186d41",
        "value": "0x0",
        "data": "0x608060405234801561001057600080fd5b5061003b7fa49807205ce4d355092ef5a8a18f56e8913cf4a201fbe287825b095693c2177533610041565b506100ed565b6000828152602081815260408083206001600160a01b038516845290915281205460ff166100e3576000838152602081815260408083206001600160a01b03861684529091529020805460ff1916600117905561009b3390565b6001600160a01b0316826001600160a01b0316847f2f8788117e7eff1d82e926ec794901d17c78024a50270940304540a733656f0d60405160405180910390a45060016100e7565b5060005b92915050565b6114cf806100fc6000396000f3fe608060405234801561001057600080fd5b50600436106101165760003560e01c806391d14854116100a2578063c66e1dd511610071578063c66e1dd514610240578063ca6d56dc14610263578063d547741f14610276578063e89e4ed614610289578063f60ca60d146102ad57600080fd5b806391d14854146101fd57806392457c3c14610210578063a10f469e14610223578063a217fddf1461023857600080fd5b806336568abe116100e957806336568abe1461019c57806375b238fc146101af578063842b4ebc146101c457806384b62c28146101d7578063852ea203146101ea57600080fd5b806301ffc9a71461011b5780630b1ca49a14610143578063248a9ca3146101585780632f2ff15d14610189575b600080fd5b61012e610129366004610ec1565b6102c5565b60405190151581526020015b60405180910390f35b610156610151366004610f07565b6102fc565b005b61017b610166366004610f22565b60009081526020819052604090206001015490565b60405190815260200161013a565b610156610197366004610f3b565b610370565b6101566101aa366004610f3b565b61039b565b61017b60008051602061145a83398151915281565b6101566101d236600461100a565b6103d3565b6101566101e5366004611051565b610538565b6101566101f8366004610f22565b61065b565b61012e61020b366004610f3b565b61075e565b61015661021e366004611096565b610787565b61017b60008051602061147a83398151915281565b61017b600081565b61025361024e366004610f22565b610810565b60405161013a9493929190611182565b610156610271366004610f07565b6108e4565b610156610284366004610f3b565b610959565b61029c610297366004610f22565b61097e565b60405161013a9594939291906111d9565b6102b5610a5b565b60405161013a9493929190611219565b60006001600160e01b03198216637965db0b60e01b14806102f657506301ffc9a760e01b6001600160e01b03198316145b92915050565b60008051602061145a83398151915261031481610c0f565b61032c60008051602061147a83398151915283610959565b610337600583610c1c565b506040516001600160a01b038316907f6e76fb4c77256006d9c38ec7d82b45a8c8f3c27b1d6766fffc42dfb8de68449290600090a25050565b60008281526020819052604090206001015461038b81610c0f565b6103958383610c38565b50505050565b6001600160a01b03811633146103c45760405163334bd91960e11b815260040160405180910390fd5b6103ce8282610cca565b505050565b60008051602061147a8339815191526103eb81610c0f565b60006040518060800160405280858152602001848152602001336001600160a01b03168152602001600060028111156104265761042661116c565b905260078054600181018255600091909152815160039091027fa66cc928b5edb82af9bd49922954155ab7b0942694bea4ce44661d9a8736c6888101918255602083015192935083927fa66cc928b5edb82af9bd49922954155ab7b0942694bea4ce44661d9a8736c6899091019061049e90826112eb565b506040820151600280830180546001600160a01b039093166001600160a01b031984168117825560608601519391926001600160a81b03199092161790600160a01b9084908111156104f2576104f261116c565b021790555050507f8037885c60020ac2420402f68adf2589fc94dbf2f4f1612ee2d0fc6ee1092695848460405161052a9291906113ab565b60405180910390a150505050565b60008051602061145a83398151915261055081610c0f565b60006040518060a00160405280858152602001844261056f91906113e2565b815260006020820181905233604083015260609091018190526008805460018101825591528151919250829160049091027ff3f7a9fe364faab93b216da50a3214154f22a0a2b415b23a84c8169e8b636ee3019081906105cf90826112eb565b506020820151600182015560408083015160028301805460608601516001600160a01b031661010002610100600160a81b0319931515939093166001600160a81b031990911617919091179055608090920151600390910155517f04370d686e0d7b125f8ada7a54ada32dc73d76ae39d0cd0e15ce218c5ef790d89061052a90869086906000906113f5565b60008051602061147a83398151915261067381610c0f565b600882815481106106865761068661141a565b600091825260209091206002600490920201015460ff16156106ef5760405162461bcd60e51b815260206004820152601b60248201527f4d696c6573746f6e6520616c726561647920636f6d706c65746564000000000060448201526064015b60405180910390fd5b6001600883815481106107045761070461141a565b600091825260209182902060049190910201600201805460ff1916921515929092179091556040518381527f41f5e423c5ae79dcb8565618891e74a7a6e76232568150b33d79001a62391b1e910160405180910390a15050565b6000918252602082815260408084206001600160a01b0393909316845291905290205460ff1690565b60008051602061145a83398151915261079f81610c0f565b60016107ab86826112eb565b5060026107b885826112eb565b5060046107c584826112eb565b5060038290556040517f245c596a4d13f2b8b6ec1d79083f99c322a820bea554a7f2b1c0b8ce920179c290610801908790879086908890611219565b60405180910390a15050505050565b6007818154811061082057600080fd5b6000918252602090912060039091020180546001820180549193509061084590611263565b80601f016020809104026020016040519081016040528092919081815260200182805461087190611263565b80156108be5780601f10610893576101008083540402835291602001916108be565b820191906000526020600020905b8154815290600101906020018083116108a157829003601f168201915b505050600290930154919250506001600160a01b0381169060ff600160a01b9091041684565b60008051602061145a8339815191526108fc81610c0f565b61091460008051602061147a83398151915283610c38565b50610920600583610d35565b506040516001600160a01b038316907fb251eb052afc73ffd02ffe85ad79990a8b3fed60d76dbc2fa2fdd7123dffd91490600090a25050565b60008281526020819052604090206001015461097481610c0f565b6103958383610cca565b6008818154811061098e57600080fd5b90600052602060002090600402016000915090508060000180546109b190611263565b80601f01602080910402602001604051908101604052809291908181526020018280546109dd90611263565b8015610a2a5780601f106109ff57610100808354040283529160200191610a2a565b820191906000526020600020905b815481529060010190602001808311610a0d57829003601f168201915b50505050600183015460028401546003909401549293909260ff821692506101009091046001600160a01b03169085565b600180548190610a6a90611263565b80601f0160208091040260200160405190810160405280929190818152602001828054610a9690611263565b8015610ae35780601f10610ab857610100808354040283529160200191610ae3565b820191906000526020600020905b815481529060010190602001808311610ac657829003601f168201915b505050505090806001018054610af890611263565b80601f0160208091040260200160405190810160405280929190818152602001828054610b2490611263565b8015610b715780601f10610b4657610100808354040283529160200191610b71565b820191906000526020600020905b815481529060010190602001808311610b5457829003601f168201915b505050505090806002015490806003018054610b8c90611263565b80601f0160208091040260200160405190810160405280929190818152602001828054610bb890611263565b8015610c055780601f10610bda57610100808354040283529160200191610c05565b820191906000526020600020905b815481529060010190602001808311610be857829003601f168201915b5050505050905084565b610c198133610d4a565b50565b6000610c31836001600160a01b038416610d87565b9392505050565b6000610c44838361075e565b610cc2576000838152602081815260408083206001600160a01b03861684529091529020805460ff19166001179055610c7a3390565b6001600160a01b0316826001600160a01b0316847f2f8788117e7eff1d82e926ec794901d17c78024a50270940304540a733656f0d60405160405180910390a45060016102f6565b5060006102f6565b6000610cd6838361075e565b15610cc2576000838152602081815260408083206001600160a01b0386168085529252808320805460ff1916905551339286917ff6391f5c32d9c69d2a47ea670b442974b53935d1edc7fd64eb21e047a839171b9190a45060016102f6565b6000610c31836001600160a01b038416610e7a565b610d54828261075e565b610d835760405163e2517d3f60e01b81526001600160a01b0382166004820152602481018390526044016106e6565b5050565b60008181526001830160205260408120548015610e70576000610dab600183611430565b8554909150600090610dbf90600190611430565b9050808214610e24576000866000018281548110610ddf57610ddf61141a565b9060005260206000200154905080876000018481548110610e0257610e0261141a565b6000918252602080832090910192909255918252600188019052604090208390555b8554869080610e3557610e35611443565b6001900381819060005260206000200160009055905585600101600086815260200190815260200160002060009055600193505050506102f6565b60009150506102f6565b6000818152600183016020526040812054610cc2575081546001818101845560008481526020808220909301849055845484825282860190935260409020919091556102f6565b600060208284031215610ed357600080fd5b81356001600160e01b031981168114610c3157600080fd5b80356001600160a01b0381168114610f0257600080fd5b919050565b600060208284031215610f1957600080fd5b610c3182610eeb565b600060208284031215610f3457600080fd5b5035919050565b60008060408385031215610f4e57600080fd5b82359150610f5e60208401610eeb565b90509250929050565b634e487b7160e01b600052604160045260246000fd5b600082601f830112610f8e57600080fd5b813567ffffffffffffffff80821115610fa957610fa9610f67565b604051601f8301601f19908116603f01168101908282118183101715610fd157610fd1610f67565b81604052838152866020858801011115610fea57600080fd5b836020870160208301376000602085830101528094505050505092915050565b6000806040838503121561101d57600080fd5b82359150602083013567ffffffffffffffff81111561103b57600080fd5b61104785828601610f7d565b9150509250929050565b6000806040838503121561106457600080fd5b823567ffffffffffffffff81111561107b57600080fd5b61108785828601610f7d565b95602094909401359450505050565b600080600080608085870312156110ac57600080fd5b843567ffffffffffffffff808211156110c457600080fd5b6110d088838901610f7d565b955060208701359150808211156110e657600080fd5b6110f288838901610f7d565b9450604087013591508082111561110857600080fd5b5061111587828801610f7d565b949793965093946060013593505050565b6000815180845260005b8181101561114c57602081850181015186830182015201611130565b506000602082860101526020601f19601f83011685010191505092915050565b634e487b7160e01b600052602160045260246000fd5b84815260806020820152600061119b6080830186611126565b6001600160a01b03851660408401529050600383106111ca57634e487b7160e01b600052602160045260246000fd5b82606083015295945050505050565b60a0815260006111ec60a0830188611126565b60208301969096525092151560408401526001600160a01b03919091166060830152608090910152919050565b60808152600061122c6080830187611126565b828103602084015261123e8187611126565b905084604084015282810360608401526112588185611126565b979650505050505050565b600181811c9082168061127757607f821691505b60208210810361129757634e487b7160e01b600052602260045260246000fd5b50919050565b601f8211156103ce57600081815260208120601f850160051c810160208610156112c45750805b601f850160051c820191505b818110156112e3578281556001016112d0565b505050505050565b815167ffffffffffffffff81111561130557611305610f67565b611319816113138454611263565b8461129d565b602080601f83116001811461134e57600084156113365750858301515b600019600386901b1c1916600185901b1785556112e3565b600085815260208120601f198616915b8281101561137d5788860151825594840194600190910190840161135e565b508582101561139b5787850151600019600388901b60f8161c191681555b5050505050600190811b01905550565b8281526040602082015260006113c46040830184611126565b949350505050565b634e487b7160e01b600052601160045260246000fd5b808201808211156102f6576102f66113cc565b6060815260006114086060830186611126565b60208301949094525060400152919050565b634e487b7160e01b600052603260045260246000fd5b818103818111156102f6576102f66113cc565b634e487b7160e01b600052603160045260246000fdfea49807205ce4d355092ef5a8a18f56e8913cf4a201fbe287825b095693c21775829b824e2329e205435d941c9f13baf578548505283d29261236d8e6596d4636a26469706673582212204bb7f36ff2427716552d1564e15d4cd4881f8bfb20273334a0eca9b82bfad42564736f6c63430008150033",
        "nonce": "0x11f",
        "accessList": []
      },
      "additionalContracts": [],
      "isFixedGasLimit": false
    },
    {
      "hash": "0xe7cf87018cf004cbb1cd7a4788d18df7bacca5d5ad0943caf47dc178fe5aee87",
      "transactionType": "CALL",
      "contractName": "ProjectContract",
      "contractAddress": "0xd7366C3A264B47e89a46258f5D3909dCbeBBd3c1",
      "function": "updateProject(string,string,string,uint256)",
      "arguments": [
        "Careerzen",
        "description url ",
        "url link",
        "864000"
      ],
      "transaction": {
        "type": "0x02",
        "from": "0xe4e78523fda823973d0484bd2dc7bc34343d68fd",
        "to": "0xd7366c3a264b47e89a46258f5d3909dcbebbd3c1",
        "gas": "0x289e8",
        "value": "0x0",
        "data": "0x92457c3c000000000000000000000000000000000000000000000000000000000000008000000000000000000000000000000000000000000000000000000000000000c0000000000000000000000000000000000000000000000000000000000000010000000000000000000000000000000000000000000000000000000000000d2f0000000000000000000000000000000000000000000000000000000000000000094361726565727a656e000000000000000000000000000000000000000000000000000000000000000000000000000000000000000000000000000000000000106465736372697074696f6e2075726c2000000000000000000000000000000000000000000000000000000000000000000000000000000000000000000000000875726c206c696e6b000000000000000000000000000000000000000000000000",
        "nonce": "0x120",
        "accessList": []
      },
      "additionalContracts": [],
      "isFixedGasLimit": false
    },
    {
      "hash": "0xf56a2de5fdf2b6d83d69205ae981f6f77fd42f884ba6249aac905c68bc4c2529",
      "transactionType": "CALL",
      "contractName": "ProjectContract",
      "contractAddress": "0xd7366C3A264B47e89a46258f5D3909dCbeBBd3c1",
      "function": "addMember(address)",
      "arguments": [
        "0xfFf09621F09CAa2C939386b688e62e5BE19D2D56"
      ],
      "transaction": {
        "type": "0x02",
        "from": "0xe4e78523fda823973d0484bd2dc7bc34343d68fd",
        "to": "0xd7366c3a264b47e89a46258f5d3909dcbebbd3c1",
        "gas": "0x29b39",
        "value": "0x0",
        "data": "0xca6d56dc000000000000000000000000fff09621f09caa2c939386b688e62e5be19d2d56",
        "nonce": "0x121",
        "accessList": []
      },
      "additionalContracts": [],
      "isFixedGasLimit": false
    },
    {
      "hash": "0x5c58bbe78441bdb8a8abbdf32de88842d753eab03fdcd7125accf5e4b0f6f093",
      "transactionType": "CALL",
      "contractName": "ProjectContract",
      "contractAddress": "0xd7366C3A264B47e89a46258f5D3909dCbeBBd3c1",
      "function": "addMember(address)",
      "arguments": [
        "0xdb1B6961d1F9d1A17C02f23BD186b3bC4f3e7E2A"
      ],
      "transaction": {
        "type": "0x02",
        "from": "0xe4e78523fda823973d0484bd2dc7bc34343d68fd",
        "to": "0xd7366c3a264b47e89a46258f5d3909dcbebbd3c1",
        "gas": "0x219e3",
        "value": "0x0",
        "data": "0xca6d56dc000000000000000000000000db1b6961d1f9d1a17c02f23bd186b3bc4f3e7e2a",
        "nonce": "0x122",
        "accessList": []
      },
      "additionalContracts": [],
      "isFixedGasLimit": false
    },
    {
      "hash": "0x64331e2ca2b6bf517646f7e77a68d85ac9bb2e2494e18081ee73d23f2099e536",
      "transactionType": "CALL",
      "contractName": "ProjectContract",
      "contractAddress": "0xd7366C3A264B47e89a46258f5D3909dCbeBBd3c1",
      "function": "addMilestone(string,uint256)",
      "arguments": [
        "milestone 1",
        "864000"
      ],
      "transaction": {
        "type": "0x02",
        "from": "0xe4e78523fda823973d0484bd2dc7bc34343d68fd",
        "to": "0xd7366c3a264b47e89a46258f5d3909dcbebbd3c1",
        "gas": "0x2a64a",
        "value": "0x0",
        "data": "0x84b62c28000000000000000000000000000000000000000000000000000000000000004000000000000000000000000000000000000000000000000000000000000d2f00000000000000000000000000000000000000000000000000000000000000000b6d696c6573746f6e652031000000000000000000000000000000000000000000",
        "nonce": "0x123",
        "accessList": []
      },
      "additionalContracts": [],
      "isFixedGasLimit": false
    }
  ],
  "receipts": [
    {
      "transactionHash": "0x03446d135d79ba7e32ff86ec4df972fbc253fe742d2060a8a6d76224b7cc8f56",
      "transactionIndex": "0x6",
      "blockHash": "0xe9a2ea4b467801e5c6de3a1ca56c4c9e421031209c623f55808167b9e0f8a059",
      "blockNumber": "0x271cae7",
      "from": "0xE4E78523FDa823973D0484Bd2dC7bC34343d68fd",
      "to": null,
      "cumulativeGasUsed": "0xbcb7f6",
      "gasUsed": "0x12ca32",
      "contractAddress": "0xd7366C3A264B47e89a46258f5D3909dCbeBBd3c1",
      "logs": [
        {
          "address": "0xd7366C3A264B47e89a46258f5D3909dCbeBBd3c1",
          "topics": [
            "0x2f8788117e7eff1d82e926ec794901d17c78024a50270940304540a733656f0d",
            "0xa49807205ce4d355092ef5a8a18f56e8913cf4a201fbe287825b095693c21775",
            "0x000000000000000000000000e4e78523fda823973d0484bd2dc7bc34343d68fd",
            "0x000000000000000000000000e4e78523fda823973d0484bd2dc7bc34343d68fd"
          ],
          "data": "0x",
          "blockHash": "0xe9a2ea4b467801e5c6de3a1ca56c4c9e421031209c623f55808167b9e0f8a059",
          "blockNumber": "0x271cae7",
          "transactionHash": "0x03446d135d79ba7e32ff86ec4df972fbc253fe742d2060a8a6d76224b7cc8f56",
          "transactionIndex": "0x6",
          "logIndex": "0xc",
          "removed": false
        },
        {
          "address": "0x0000000000000000000000000000000000001010",
          "topics": [
            "0x4dfe1bbbcf077ddc3e01291eea2d5c70c2b422b415d95645b9adcfd678cb1d63",
            "0x0000000000000000000000000000000000000000000000000000000000001010",
            "0x000000000000000000000000e4e78523fda823973d0484bd2dc7bc34343d68fd",
            "0x000000000000000000000000c275dc8be39f50d12f66b6a63629c39da5bae5bd"
          ],
          "data": "0x0000000000000000000000000000000000000000000000000008bfebf5ff7aae00000000000000000000000000000000000000000000000008e3d94c65266cfb0000000000000000000000000000000000000000000013225b5373a67039dd1800000000000000000000000000000000000000000000000008db19606f26f24d0000000000000000000000000000000000000000000013225b5c3392663957c6",
          "blockHash": "0xe9a2ea4b467801e5c6de3a1ca56c4c9e421031209c623f55808167b9e0f8a059",
          "blockNumber": "0x271cae7",
          "transactionHash": "0x03446d135d79ba7e32ff86ec4df972fbc253fe742d2060a8a6d76224b7cc8f56",
          "transactionIndex": "0x6",
          "logIndex": "0xd",
          "removed": false
        }
      ],
      "status": "0x1",
      "logsBloom": "0x00000004000000000000000000000000000080000000000000000000000000000000000000000000000000000000000000018000002000000000000000000000000000000000000000000000000000800000000020000000040100000000000000000000000080000000000000000000000000000000000880000000000000000000000000000000000002000000004000000000000000000000000000080000200000000000000000000000000000000000000000000000001040000000004000000000000000000001000000000000000000000000000100100000000000000000000000000000000000000000000000000000000000000000200000100000",
      "type": "0x2",
      "effectiveGasPrice": "0x77359400"
    },
    {
      "transactionHash": "0xe7cf87018cf004cbb1cd7a4788d18df7bacca5d5ad0943caf47dc178fe5aee87",
      "transactionIndex": "0x7",
      "blockHash": "0xe9a2ea4b467801e5c6de3a1ca56c4c9e421031209c623f55808167b9e0f8a059",
      "blockNumber": "0x271cae7",
      "from": "0xE4E78523FDa823973D0484Bd2dC7bC34343d68fd",
      "to": "0xd7366C3A264B47e89a46258f5D3909dCbeBBd3c1",
      "cumulativeGasUsed": "0xbe8e7c",
      "gasUsed": "0x1d686",
      "contractAddress": null,
      "logs": [
        {
          "address": "0xd7366C3A264B47e89a46258f5D3909dCbeBBd3c1",
          "topics": [
            "0x245c596a4d13f2b8b6ec1d79083f99c322a820bea554a7f2b1c0b8ce920179c2"
          ],
          "data": "0x000000000000000000000000000000000000000000000000000000000000008000000000000000000000000000000000000000000000000000000000000000c000000000000000000000000000000000000000000000000000000000000d2f00000000000000000000000000000000000000000000000000000000000000010000000000000000000000000000000000000000000000000000000000000000094361726565727a656e000000000000000000000000000000000000000000000000000000000000000000000000000000000000000000000000000000000000106465736372697074696f6e2075726c2000000000000000000000000000000000000000000000000000000000000000000000000000000000000000000000000875726c206c696e6b000000000000000000000000000000000000000000000000",
          "blockHash": "0xe9a2ea4b467801e5c6de3a1ca56c4c9e421031209c623f55808167b9e0f8a059",
          "blockNumber": "0x271cae7",
          "transactionHash": "0xe7cf87018cf004cbb1cd7a4788d18df7bacca5d5ad0943caf47dc178fe5aee87",
          "transactionIndex": "0x7",
          "logIndex": "0xe",
          "removed": false
        },
        {
          "address": "0x0000000000000000000000000000000000001010",
          "topics": [
            "0x4dfe1bbbcf077ddc3e01291eea2d5c70c2b422b415d95645b9adcfd678cb1d63",
            "0x0000000000000000000000000000000000000000000000000000000000001010",
            "0x000000000000000000000000e4e78523fda823973d0484bd2dc7bc34343d68fd",
            "0x000000000000000000000000c275dc8be39f50d12f66b6a63629c39da5bae5bd"
          ],
          "data": "0x0000000000000000000000000000000000000000000000000000db1ac3a4391a00000000000000000000000000000000000000000000000008db19606de784fb0000000000000000000000000000000000000000000013225b5c3392663957c600000000000000000000000000000000000000000000000008da3e45aa434be10000000000000000000000000000000000000000000013225b5d0ead29dd90e0",
          "blockHash": "0xe9a2ea4b467801e5c6de3a1ca56c4c9e421031209c623f55808167b9e0f8a059",
          "blockNumber": "0x271cae7",
          "transactionHash": "0xe7cf87018cf004cbb1cd7a4788d18df7bacca5d5ad0943caf47dc178fe5aee87",
          "transactionIndex": "0x7",
          "logIndex": "0xf",
          "removed": false
        }
      ],
      "status": "0x1",
      "logsBloom": "0x00000000000000000000000000000000000080000000000000000000000000000000000000000000000000000000100000018000002000000000000000000000000000000000000000000000000000800000000000000000040100000000000000000000000080000000000000000000000000000000000080000000000000000000000100000000000002000000000000000000000000000000000000080000200000000000000000000000000000000000000000000000000040000000004000000000000000000001000000000000000000000000000000100000000000010000000000000000000000000000000000000000000000000000200000100000",
      "type": "0x2",
      "effectiveGasPrice": "0x77359400"
    },
    {
      "transactionHash": "0xf56a2de5fdf2b6d83d69205ae981f6f77fd42f884ba6249aac905c68bc4c2529",
      "transactionIndex": "0x8",
      "blockHash": "0xe9a2ea4b467801e5c6de3a1ca56c4c9e421031209c623f55808167b9e0f8a059",
      "blockNumber": "0x271cae7",
      "from": "0xE4E78523FDa823973D0484Bd2dC7bC34343d68fd",
      "to": "0xd7366C3A264B47e89a46258f5D3909dCbeBBd3c1",
      "cumulativeGasUsed": "0xc056b5",
      "gasUsed": "0x1c839",
      "contractAddress": null,
      "logs": [
        {
          "address": "0xd7366C3A264B47e89a46258f5D3909dCbeBBd3c1",
          "topics": [
            "0x2f8788117e7eff1d82e926ec794901d17c78024a50270940304540a733656f0d",
            "0x829b824e2329e205435d941c9f13baf578548505283d29261236d8e6596d4636",
            "0x000000000000000000000000fff09621f09caa2c939386b688e62e5be19d2d56",
            "0x000000000000000000000000e4e78523fda823973d0484bd2dc7bc34343d68fd"
          ],
          "data": "0x",
          "blockHash": "0xe9a2ea4b467801e5c6de3a1ca56c4c9e421031209c623f55808167b9e0f8a059",
          "blockNumber": "0x271cae7",
          "transactionHash": "0xf56a2de5fdf2b6d83d69205ae981f6f77fd42f884ba6249aac905c68bc4c2529",
          "transactionIndex": "0x8",
          "logIndex": "0x10",
          "removed": false
        },
        {
          "address": "0xd7366C3A264B47e89a46258f5D3909dCbeBBd3c1",
          "topics": [
            "0xb251eb052afc73ffd02ffe85ad79990a8b3fed60d76dbc2fa2fdd7123dffd914",
            "0x000000000000000000000000fff09621f09caa2c939386b688e62e5be19d2d56"
          ],
          "data": "0x",
          "blockHash": "0xe9a2ea4b467801e5c6de3a1ca56c4c9e421031209c623f55808167b9e0f8a059",
          "blockNumber": "0x271cae7",
          "transactionHash": "0xf56a2de5fdf2b6d83d69205ae981f6f77fd42f884ba6249aac905c68bc4c2529",
          "transactionIndex": "0x8",
          "logIndex": "0x11",
          "removed": false
        },
        {
          "address": "0x0000000000000000000000000000000000001010",
          "topics": [
            "0x4dfe1bbbcf077ddc3e01291eea2d5c70c2b422b415d95645b9adcfd678cb1d63",
            "0x0000000000000000000000000000000000000000000000000000000000001010",
            "0x000000000000000000000000e4e78523fda823973d0484bd2dc7bc34343d68fd",
            "0x000000000000000000000000c275dc8be39f50d12f66b6a63629c39da5bae5bd"
          ],
          "data": "0x0000000000000000000000000000000000000000000000000000d471fa6fa83700000000000000000000000000000000000000000000000008da3e45aa240cfb0000000000000000000000000000000000000000000013225b5d0ead29dd90e000000000000000000000000000000000000000000000000008d969d3afb464c40000000000000000000000000000000000000000000013225b5de31f244d3917",
          "blockHash": "0xe9a2ea4b467801e5c6de3a1ca56c4c9e421031209c623f55808167b9e0f8a059",
          "blockNumber": "0x271cae7",
          "transactionHash": "0xf56a2de5fdf2b6d83d69205ae981f6f77fd42f884ba6249aac905c68bc4c2529",
          "transactionIndex": "0x8",
          "logIndex": "0x12",
          "removed": false
        }
      ],
      "status": "0x1",
      "logsBloom": "0x0000040400000000000000000000010000008000000000000000000000000000000000000000000000000000000000000001c000002000000000000000000000000000000000000000000000000000800000000000000004040100000000000000000000000080000000000000000000000084000000000080000000000000000000080000000000000002000000000000000000000000000000000000080000200000000000000000000000000000000000000000000000001040000000004000000000000000000001000000000000000000000000000100100000008000000000000000000000000000000000000001000000000000000000200000100000",
      "type": "0x2",
      "effectiveGasPrice": "0x77359400"
    },
    {
      "transactionHash": "0x5c58bbe78441bdb8a8abbdf32de88842d753eab03fdcd7125accf5e4b0f6f093",
      "transactionIndex": "0x9",
      "blockHash": "0xe9a2ea4b467801e5c6de3a1ca56c4c9e421031209c623f55808167b9e0f8a059",
      "blockNumber": "0x271cae7",
      "from": "0xE4E78523FDa823973D0484Bd2dC7bC34343d68fd",
      "to": "0xd7366C3A264B47e89a46258f5D3909dCbeBBd3c1",
      "cumulativeGasUsed": "0xc1dc22",
      "gasUsed": "0x1856d",
      "contractAddress": null,
      "logs": [
        {
          "address": "0xd7366C3A264B47e89a46258f5D3909dCbeBBd3c1",
          "topics": [
            "0x2f8788117e7eff1d82e926ec794901d17c78024a50270940304540a733656f0d",
            "0x829b824e2329e205435d941c9f13baf578548505283d29261236d8e6596d4636",
            "0x000000000000000000000000db1b6961d1f9d1a17c02f23bd186b3bc4f3e7e2a",
            "0x000000000000000000000000e4e78523fda823973d0484bd2dc7bc34343d68fd"
          ],
          "data": "0x",
          "blockHash": "0xe9a2ea4b467801e5c6de3a1ca56c4c9e421031209c623f55808167b9e0f8a059",
          "blockNumber": "0x271cae7",
          "transactionHash": "0x5c58bbe78441bdb8a8abbdf32de88842d753eab03fdcd7125accf5e4b0f6f093",
          "transactionIndex": "0x9",
          "logIndex": "0x13",
          "removed": false
        },
        {
          "address": "0xd7366C3A264B47e89a46258f5D3909dCbeBBd3c1",
          "topics": [
            "0xb251eb052afc73ffd02ffe85ad79990a8b3fed60d76dbc2fa2fdd7123dffd914",
            "0x000000000000000000000000db1b6961d1f9d1a17c02f23bd186b3bc4f3e7e2a"
          ],
          "data": "0x",
          "blockHash": "0xe9a2ea4b467801e5c6de3a1ca56c4c9e421031209c623f55808167b9e0f8a059",
          "blockNumber": "0x271cae7",
          "transactionHash": "0x5c58bbe78441bdb8a8abbdf32de88842d753eab03fdcd7125accf5e4b0f6f093",
          "transactionIndex": "0x9",
          "logIndex": "0x14",
          "removed": false
        },
        {
          "address": "0x0000000000000000000000000000000000001010",
          "topics": [
            "0x4dfe1bbbcf077ddc3e01291eea2d5c70c2b422b415d95645b9adcfd678cb1d63",
            "0x0000000000000000000000000000000000000000000000000000000000001010",
            "0x000000000000000000000000e4e78523fda823973d0484bd2dc7bc34343d68fd",
            "0x000000000000000000000000c275dc8be39f50d12f66b6a63629c39da5bae5bd"
          ],
          "data": "0x0000000000000000000000000000000000000000000000000000b5572b9a27c300000000000000000000000000000000000000000000000008d969d3af9618fb0000000000000000000000000000000000000000000013225b5de31f244d391700000000000000000000000000000000000000000000000008d8b47c83fbf1380000000000000000000000000000000000000000000013225b5e98764fe760da",
          "blockHash": "0xe9a2ea4b467801e5c6de3a1ca56c4c9e421031209c623f55808167b9e0f8a059",
          "blockNumber": "0x271cae7",
          "transactionHash": "0x5c58bbe78441bdb8a8abbdf32de88842d753eab03fdcd7125accf5e4b0f6f093",
          "transactionIndex": "0x9",
          "logIndex": "0x15",
          "removed": false
        }
      ],
      "status": "0x1",
      "logsBloom": "0x0000040c00000000000000000000000000008000000000000000000000000000000000000000000000000000000000000001c000082000000000000000000400000000000000000000000000000000800000000000000000040100000000000000000000000080000000000000000000000084000000000080000000000000000000080000000000000002000000000000000000000000000000000000080000200000000000000000000000000000000000000000000000001040000000004000000000000000000001000000000000000000000000000100100000000000000000000000000000000000000000000001000000000000000000200000100000",
      "type": "0x2",
      "effectiveGasPrice": "0x77359400"
    },
    {
      "transactionHash": "0x64331e2ca2b6bf517646f7e77a68d85ac9bb2e2494e18081ee73d23f2099e536",
      "transactionIndex": "0xa",
      "blockHash": "0xe9a2ea4b467801e5c6de3a1ca56c4c9e421031209c623f55808167b9e0f8a059",
      "blockNumber": "0x271cae7",
      "from": "0xE4E78523FDa823973D0484Bd2dC7bC34343d68fd",
      "to": "0xd7366C3A264B47e89a46258f5D3909dCbeBBd3c1",
      "cumulativeGasUsed": "0xc3abec",
      "gasUsed": "0x1cfca",
      "contractAddress": null,
      "logs": [
        {
          "address": "0xd7366C3A264B47e89a46258f5D3909dCbeBBd3c1",
          "topics": [
            "0x04370d686e0d7b125f8ada7a54ada32dc73d76ae39d0cd0e15ce218c5ef790d8"
          ],
          "data": "0x000000000000000000000000000000000000000000000000000000000000006000000000000000000000000000000000000000000000000000000000000d2f000000000000000000000000000000000000000000000000000000000000000000000000000000000000000000000000000000000000000000000000000000000b6d696c6573746f6e652031000000000000000000000000000000000000000000",
          "blockHash": "0xe9a2ea4b467801e5c6de3a1ca56c4c9e421031209c623f55808167b9e0f8a059",
          "blockNumber": "0x271cae7",
          "transactionHash": "0x64331e2ca2b6bf517646f7e77a68d85ac9bb2e2494e18081ee73d23f2099e536",
          "transactionIndex": "0xa",
          "logIndex": "0x16",
          "removed": false
        },
        {
          "address": "0x0000000000000000000000000000000000001010",
          "topics": [
            "0x4dfe1bbbcf077ddc3e01291eea2d5c70c2b422b415d95645b9adcfd678cb1d63",
            "0x0000000000000000000000000000000000000000000000000000000000001010",
            "0x000000000000000000000000e4e78523fda823973d0484bd2dc7bc34343d68fd",
            "0x000000000000000000000000c275dc8be39f50d12f66b6a63629c39da5bae5bd"
          ],
          "data": "0x0000000000000000000000000000000000000000000000000000d7f7f6d3fb9600000000000000000000000000000000000000000000000008d8b47c83e214fb0000000000000000000000000000000000000000000013225b5e98764fe760da00000000000000000000000000000000000000000000000008d7dc848d0e19650000000000000000000000000000000000000000000013225b5f706e46bb5c70",
          "blockHash": "0xe9a2ea4b467801e5c6de3a1ca56c4c9e421031209c623f55808167b9e0f8a059",
          "blockNumber": "0x271cae7",
          "transactionHash": "0x64331e2ca2b6bf517646f7e77a68d85ac9bb2e2494e18081ee73d23f2099e536",
          "transactionIndex": "0xa",
          "logIndex": "0x17",
          "removed": false
        }
      ],
      "status": "0x1",
      "logsBloom": "0x00000000000000020000000000000000000080000000000000000000000000000000000000000000000000000000000000018000002000010000000000000000000000000000000000000000000000800000000000000000040100000000000000000000000080000000000000000000000000000000000080000000000000000000000000000000000002000000000000000000000000000000000000080000200020000000000000000000000000000000000000000000000040000000004000000000000000000001000000000000000000000000000000100000000000000000000000000000000000000000000000000000000000000000200000100000",
      "type": "0x2",
      "effectiveGasPrice": "0x77359400"
    }
  ],
  "libraries": [],
  "pending": [],
  "returns": {},
  "timestamp": 1696857840,
  "chain": 80001,
  "multi": false,
  "commit": "5f9afe2"
}